:100000000C9434000C9451000C9451000C94510049
:100010000C9451000C9451000C9451000C9451001C
:100020000C9451000C9451000C9451000C9451000C
:100030000C9451000C9451000C9451000C945100FC
:100040000C9451000C9451000C9451000C945100EC
:100050000C9451000C9451000C9451000C945100DC
:100060000C9451000C94510011241FBECFEFD4E02A
:10007000DEBFCDBF13E0A0E0B1E0E2EFF2E102C0ED
:1000800005900D92AA3AB107D9F713E0AAEAB3E0B6
:1000900001C01D92AF3BB107E1F70E9401060C942D
:1000A00078090C9400002D9A84B1836284B984E0AD
:1000B0008093810082E08093B1000895292F332737
:1000C0002093C5008093C40082E08093C00088E143
:1000D0008093C10086E08093C2000895882309F4CC
:1000E00081E0B89A81958093B200B89BFECF0895C5
:1000F000CF93DF93EC010DC08AEF0E946E008AEF70
:100100000E946E008AEF0E946E008AEF0E946E00CD
:100110002197209789F7DF91CF910895982F8091AB
:10012000C00085FFFCCF9093C60008958091C00069
:1001300087FFFCCF8091C60090E00895F999FECF2B
:1001400092BD81BD60BDFA9AF99A0895F999FECFE2
:1001500092BD81BDF89A80B590E008952F923F92AC
:100160004F925F926F927F928F929F92AF92BF92C7
:10017000CF92DF92EF92FF921F93CF93DF93609124
:10018000AB037091AC038091AD039091AE030E94DC
:100190009708EB0182E090E00E94A600182F1C70E7
:1001A0002D98FBEC8F2EF1E09F2EE5ECAE2EE1E0DA
:1001B000BE2E7BE5272E72E0372E6CED662E62E0B8
:1001C000762E5FE1452E53E0552E1F921F9280E060
:1001D00091E09F938F930E9409071F921F9283E2E1
:1001E00091E09F938F930E9409071F921F928EE4C4
:1001F00091E09F938F930E9409071F921F9281E7BE
:1002000091E09F938F930E9409078DB79EB7409608
:100210000FB6F8949EBF0FBE8DBF8091A8038823B0
:1002200029F41F921F9283E991E004C01F921F924C
:100230008CE991E09F938F930E9409070F900F9094
:100240000F900F901F921F9284EA91E09F938F93DB
:100250000E9409070F900F900F900F908091AA03B2
:10026000882329F41F921F92BF92AF9204C01F925D
:100270001F929F928F920E9409070F900F900F90EC
:100280000F901F921F9280ED91E09F938F930E9499
:100290000907812F90E08C7090700F900F900F9055
:1002A0000F90009729F41F921F928DEF91E016C0D6
:1002B0008430910529F41F921F9284E092E00EC0D1
:1002C0008830910529F41F921F9289E092E006C0C0
:1002D0000C9761F41F921F928EE092E09F938F9390
:1002E0000E9409070F900F900F900F90DF93CF930C
:1002F00083E192E09F938F930E9409071F921F92C0
:100300008BE392E09F938F930E9409078DB79EB76E
:1003100008960FB6F8949EBF0FBE8DBF8091C000A7
:1003200087FFFCCF8091C600813309F003C11F9283
:100330001F923F922F920E9409078091A7030F906E
:100340000F900F900F9085FF05C01F921F929F92F4
:100350008F9204C01F921F92BF92AF920E94090712
:100360000F900F900F900F901F921F9289E692E0CE
:100370009F938F930E9409078091A7030F900F907E
:100380000F900F9084FF05C01F921F929F928F9233
:1003900004C01F921F92BF92AF920E9409070F9054
:1003A0000F900F900F901F921F9287E792E09F93FC
:1003B0008F930E9409078091A7030F900F900F90D1
:1003C0000F9083FF05C01F921F929F928F9204C0CF
:1003D0001F921F92BF92AF920E9409070F900F9039
:1003E0000F900F901F921F9285E892E09F938F933A
:1003F0000E9409078091A7030F900F900F900F9014
:1004000082FF05C01F921F929F928F9204C01F927D
:100410001F92BF92AF920E9409070F900F900F900A
:100420000F901F921F9281E992E09F938F930E94F9
:1004300009078091A7030F900F900F900F9081FFF5
:1004400005C01F921F929F928F9204C01F921F920D
:10045000BF92AF920E9409070F900F900F900F90DC
:100460001F921F928CE992E09F938F930E9409073D
:100470008091A7030F900F900F900F9080FF05C001
:100480001F921F929F928F9204C01F921F92BF9241
:10049000AF920E9409070F900F900F900F901F923C
:1004A0001F9286EA92E09F938F930E9409071F9202
:1004B0001F927F926F920E9409078DB79EB7089690
:1004C0000FB6F8949EBF0FBE8DBF8091C00087FF0E
:1004D000FCCF8091C600813321F48091A70390E284
:1004E00005C0823339F48091A70390E18927809376
:1004F000A7031DCF833321F48091A70398E0F6CFA3
:10050000843321F48091A70394E0F0CF853321F464
:100510008091A70392E0EACF863321F48091A7036C
:1005200091E0E4CF883709F002CF6091A70383E020
:1005300090E0CDC0823379F49091A80381E09827B0
:100540009093A803992311F41E7F3FCE913009F0B8
:100550003CCE11603ACE833379F49091AA0381E0C6
:1005600098279093AA03992311F41D7F2ECE9130E2
:1005700009F02BCE126029CE843309F052C01F92AD
:100580001F9281EF92E09F938F930E9409071F9221
:100590001F928DEF92E09F938F930E9409071F9205
:1005A0001F9287E093E09F938F930E9409071F9209
:1005B0001F928FE093E09F938F930E9409071F92F1
:1005C0001F9287E193E09F938F930E9409078DB755
:1005D0009EB744960FB6F8949EBF0FBE8DBF809114
:1005E000C00087FFFCCF8091C600813329F485B11C
:1005F0008C7F85B9137FE9CD823329F4289A299815
:10060000177F1460E2CD833329F42898299A1B7F41
:100610001860DBCD843319F785B1836085B91C6020
:10062000D4CD853309F056C01F921F925F924F922E
:100630000E9409070F900F900F900F9047E5C42E6E
:1006400043E0D42E3AE5E32E33E0F32EDF93CF934D
:10065000DF92CF920E9409070F900F900F900F909A
:100660008091C00087FFFCCF8091C600893611F4CD
:10067000219606C0843611F4219702C0883781F094
:10068000CA30D10514F4CAE0D0E01F921F92FF9245
:10069000EF920E9409070F900F900F900F90D6CF06
:1006A000BE01882777FD8095982F0E94CA08609325
:1006B000AB037093AC038093AD039093AE0360E003
:1006C00081E090E00E949E006C2F80E090E00E940C
:1006D0009E007BCD893309F078CD612F82E090E0D8
:1006E0000E949E001F921F9281E693E09F938F933A
:1006F0000E9409072D9A0F900F900F900F90DF9195
:10070000CF911F91FF90EF90DF90CF90BF90AF906F
:100710009F908F907F906F905F904F903F902F9021
:1007200008950F931F93CF93DF931092BA03109203
:10073000B9031092B2031092B1031092B403109255
:10074000B3031092BC031092BB031092BE0310922D
:10075000BD031092B8031092B7032091AB03309100
:10076000AC034091AD035091AE0360E070E080E8CF
:100770009FE30E942F0825E93FEB46ED57E30E94D7
:100780002F080E9497087093B6036093B503C0E0EA
:10079000D0E007E513E0B09A8091B5039091B603DD
:1007A000909581959F4F909385008093840010923F
:1007B000BA031092B9031092B2031092B1031092CF
:1007C000B4031092B3031092BC031092BB031092B7
:1007D000BE031092BD031092B8031092B70380912C
:1007E000C00085FFFCCF81E48093C6008091A80300
:1007F000882379F42D2F33278091C00085FFFCCF0B
:100800002093C6008091C00085FFFCCFC093C60036
:100810001AC08130C1F48091C00085FFFCCF89E00F
:100820008093C600DF93CF931F930F930E94090715
:100830000F900F900F900F908091C00085FFFCCF1C
:1008400089E08093C6008091A70385FF40C080E4C3
:1008500080937C0086EC80937A0080917A0086FDFC
:10086000FCCF209178008091790090E083709070A7
:10087000582F442730E0422B532B5093BA03409318
:10088000B9038091A803882379F4252F3327809119
:10089000C00085FFFCCF2093C6008091C00085FF7B
:1008A000FCCF4093C60013C0813089F45F934F930F
:1008B0001F930F930E9409070F900F900F900F90B6
:1008C0008091C00085FFFCCF89E08093C6008091B5
:1008D000A70384FF40C081E480937C0086EC809372
:1008E0007A0080917A0086FDFCCF2091780080917B
:1008F000790090E083709070582F442730E0422BAD
:10090000532B5093B2034093B1038091A8038823E3
:1009100079F4252F33278091C00085FFFCCF2093E9
:10092000C6008091C00085FFFCCF4093C60013C075
:10093000813089F45F934F931F930F930E940907AF
:100940000F900F900F900F908091C00085FFFCCF0B
:1009500089E08093C6008091A70383FF40C082E4B2
:1009600080937C0086EC80937A0080917A0086FDEB
:10097000FCCF209178008091790090E08370907096
:10098000582F442730E0422B532B5093B40340930D
:10099000B3038091A803882379F4252F332780910E
:1009A000C00085FFFCCF2093C6008091C00085FF6A
:1009B000FCCF4093C60013C0813089F45F934F93FE
:1009C0001F930F930E9409070F900F900F900F90A5
:1009D0008091C00085FFFCCF89E08093C6008091A4
:1009E000A70382FF40C083E480937C0086EC809361
:1009F0007A0080917A0086FDFCCF2091780080916A
:100A0000790090E083709070582F442730E0422B9B
:100A1000532B5093BC034093BB038091A8038823BE
:100A200079F4252F33278091C00085FFFCCF2093D8
:100A3000C6008091C00085FFFCCF4093C60013C064
:100A4000813089F45F934F931F930F930E9409079E
:100A50000F900F900F900F908091C00085FFFCCFFA
:100A600089E08093C6008091A70381FF40C084E4A1
:100A700080937C0086EC80937A0080917A0086FDDA
:100A8000FCCF209178008091790090E08370907085
:100A9000582F442730E0422B532B5093BE034093F2
:100AA000BD038091A803882379F4252F33278091F3
:100AB000C00085FFFCCF2093C6008091C00085FF59
:100AC000FCCF4093C60013C0813089F45F934F93ED
:100AD0001F930F930E9409070F900F900F900F9094
:100AE0008091C00085FFFCCF89E08093C600809193
:100AF000A70380FF40C085E480937C0086EC809350
:100B00007A0080917A0086FDFCCF20917800809158
:100B1000790090E083709070582F442730E0422B8A
:100B2000532B5093B8034093B7038091A8038823B5
:100B300079F4252F33278091C00085FFFCCF2093C7
:100B4000C6008091C00085FFFCCF4093C60013C053
:100B5000813089F45F934F931F930F930E9409078D
:100B60000F900F900F900F908091C00085FFFCCFE9
:100B700089E08093C6008091C00085FFFCCF8AE5A4
:100B80008093C6008091A803813071F48091C000E9
:100B900085FFFCCF8AE08093C6008091C00085FF6E
:100BA000FCCF8DE08093C6002196D7FF02C0C0E045
:100BB000D0E0CE018F739070892B21F485B190E243
:100BC000892785B9B09B0DC01F921F928EE693E0D6
:100BD0009F938F930E9409070F900F900F900F9093
:100BE0000BC0B09BFECF8091C00087FFD4CD809119
:100BF000C600803209F0CFCDDF91CF911F910F91C8
:100C00000895EF92FF920F931F93CF93DF930E946B
:100C100053008AE090E00E945E008EE890E00E941F
:100C2000F006C0E0D0E02D9882E390E00E947800CA
:100C30002D9A82E390E00E9478002196C530D1057C
:100C400091F71092A8031092AA0381E090E00E940D
:100C5000A6008F3F39F5F89464E680E090E00E94AA
:100C60009E0060E081E090E00E949E0060E082E0F3
:100C700090E00E949E006FE383E090E00E949E005F
:100C8000789480E090E0A8ECB2E48093AB0390937A
:100C9000AC03A093AD03B093AE031092A8031092DF
:100CA000AA0353C081E090E00E94A600E82EFF2432
:100CB000FE2CEE2480E090E00E94A60090E0E82A5E
:100CC000F92A0027F7FC0095102FC801B7010E94F0
:100CD000CA086093AB037093AC038093AD03909309
:100CE000AE0383E090E00E94A6008093A70382E019
:100CF00090E00E94A600282F83FD299A22FD289AC1
:100D000021FF03C081E08093AA0320FF03C081E09C
:100D10008093A8038091AA03813041F40E9491033B
:100D20000E94AE008091AA038823C1F78091C00081
:100D300087FFF0CF8091C600833229F41092A80378
:100D40000E949103E7CF853219F485B18C7F0EC0E4
:100D5000863219F4289A2998DDCF873219F4289819
:100D6000299AD8CF883221F485B1836085B9D2CF52
:100D7000893229F480E090E0A8E4B2E41BC08A3212
:100D800029F480E090E0A8ECB2E414C08B3229F49E
:100D900080E090E0A6E1B3E40DC08C3229F480E05D
:100DA00090E0A8E4B3E406C08D3269F480E090E0FE
:100DB000AAE7B3E48093AB039093AC03A093AD0395
:100DC000B093AE03A7CF803209F0A4CF0E94AE004B
:100DD0008091AA03882309F49DCF0E949103F6CF46
:100DE0009093B0038093AF0308951F93182F8A3018
:100DF00039F4E091AF03F091B0038DE090E00995F4
:100E0000E091AF03F091B003812F90E009951F911D
:100E100008952F923F924F925F926F927F928F929E
:100E20009F92AF92BF92CF92DF92EF92FF920F9379
:100E30001F93CF93DF93CDB7DEB72E970FB6F894FD
:100E4000DEBF0FBECDBFFE01B39661907190FA83F5
:100E5000E9833EE0232E312C2C0E3D1E05C0882355
:100E600009F4E4C00E94F506F30181913F01853247
:100E7000B1F781913F01803321F0803211F0442499
:100E80000BC0F30191913F0120ED522E590EF9E074
:100E9000F51520F4482E892F552404C0482EF3015F
:100EA00081913F018C3621F08C3411F090E004C028
:100EB000F30181913F0191E08835E1F1893570F4CA
:100EC0008934D9F18A3428F48334D9F0843451F642
:100ED00034C08335F1F0853529F6A2C0893669F131
:100EE0008A3630F4833669F0843609F0BBCF25C0EA
:100EF000853709F495C08837E9F0833709F0B2CF18
:100F000008C0E981FA813296FA83E98332978081B9
:100F1000A9CFE981FA813296FA83E983129102918D
:100F200004C00E94F5060F5F1F4FF80180818823DF
:100F3000C1F79ACF20E130E075C0E981FA819923A9
:100F400041F03496FA83E98312910291F290E29093
:100F50000AC03296FA83E983929182917C0100273C
:100F6000F7FC0095102F17FF0BC010950095F0941B
:100F7000E094E11CF11C011D111D8DE20E94F5069B
:100F80002AE030E014C0E981FA813496FA83E983DB
:100F900012910291F290E2900AC0E981FA813296B0
:100FA000FA83E983929182917C0100E010E01E8631
:100FB00061014901AA24BB24C801B701A50194011C
:100FC0000E945609262F205D2A3308F0295FF6017A
:100FD00022936F01C801B701A50194010E9456092F
:100FE00079018A0151105A94E114F10401051105A7
:100FF00019F7252DC60103C0F60142926F015A94DC
:10100000FFEF5F16C9F78C01021B110904C00E9493
:10101000F5060F5F1F4FF80180818823C1F724CFA9
:101020002AE030E0992309F0AECFB7CF2E960FB665
:10103000F894DEBF0FBECDBFDF91CF911F910F910E
:10104000FF90EF90DF90CF90BF90AF909F908F90E8
:101050007F906F905F904F903F902F9008950CD0AD
:10106000EBC0E3D040F0DAD030F021F45F3F19F06C
:10107000CCC0511115C1CFC0F0D098F39923C9F35A
:101080005523B1F3951B550BBB27AA27621773078E
:10109000840738F09F5F5F4F220F331F441FAA1F42
:1010A000A9F333D00E2E3AF0E0E830D09150504002
:1010B000E695001CCAF729D0FE2F27D0660F771FB0
:1010C000881FBB1F261737074807AB07B0E809F092
:1010D000BB0B802DBF01FF2793585F4F2AF09E3F27
:1010E000510568F092C0DCC05F3FECF3983EDCF342
:1010F000869577956795B795F7959F5FC9F7880FA0
:10110000911D9695879597F90895E1E0660F771FF1
:10111000881FBB1F621773078407BA0720F0621B82
:10112000730B840BBA0BEE1F88F7E095089504D07B
:101130006894B111B5C0089598D088F09F5790F089
:10114000B92F9927B751A0F0D1F0660F771F881FEC
:10115000991F1AF0BA95C9F712C0B13081F09FD02B
:10116000B1E008959CC0672F782F8827B85F39F0C9
:10117000B93FCCF3869577956795B395D9F73EF44B
:1011800090958095709561957F4F8F4F9F4F0895F3
:10119000E89409C097FB3EF4909580957095619511
:1011A0007F4F8F4F9F4F9923A9F0F92F96E9BB27C7
:1011B0009395F695879577956795B795F111F8CF43
:1011C000FAF4BB0F11F460FF1BC06F5F7F4F8F4FAE
:1011D0009F4F16C0882311F096E911C0772321F0A4
:1011E0009EE8872F762F05C0662371F096E8862F3C
:1011F00070E060E02AF09A95660F771F881FDAF793
:10120000880F9695879597F9089597F99F6780E8D5
:1012100070E060E008959FEF80EC089500240A9448
:101220001616170618060906089500240A941216C1
:101230001306140605060895092E0394000C11F4F4
:10124000882352F0BB0F40F4BF2B11F460FF04C0A1
:101250006F5F7F4F8F4F9F4F089557FD9058440FFA
:10126000551F59F05F3F71F04795880F97FB991F05
:1012700061F09F3F79F087950895121613061406C2
:10128000551FF2CF4695F1DF08C01616170618064F
:10129000991FF1CF86957105610508940895E8942A
:1012A000BB2766277727CB0197F90895A1E21A2E6D
:1012B000AA1BBB1BFD010DC0AA1FBB1FEE1FFF1FFA
:1012C000A217B307E407F50720F0A21BB30BE40B4A
:1012D000F50B661F771F881F991F1A9469F7609591
:1012E0007095809590959B01AC01BD01CF0108954B
:0212F000FFCF2E
:1012F2000D0A36444F462041746F6D696320736551
:101302007475702C2076657273696F6E20312E3081
:101312000D0A003D3D3D3D3D3D3D3D3D3D3D3D3D9B
:101322003D3D3D3D3D3D3D3D3D3D3D3D3D3D3D3DEB
:101332003D3D3D3D3D3D3D3D3D3D3D0D0A0031299B
:1013420020566965772F65646974206163746976D4
:1013520065206368616E6E656C206C6973740D0A3A
:10136200003229204368616E6765206F757470755D
:1013720074206D6F64652C2063757272656E746C77
:1013820079200062696E6172790D0A004153434906
:10139200490D0A00332920536574204175746F206A
:1013A20072756E206D6F64652C2063757272656E46
:1013B200746C7920006F66660D0A006F6E0D0A006C
:1013C20034292053657420616363656C65726F6DA7
:1013D200657465722073656E736974697669747970
:1013E2002C2063757272656E746C792000312E3513
:1013F200670D0A0032670D0A0034670D0A0036676E
:101402000D0A00352920536574206F757470757448
:10141200206672657175656E63792C2063757272D0
:10142200656E746C792025640D0A00392920536198
:1014320076652073657474696E677320616E6420CB
:1014420072756E20756E69740D0A00312920416330
:1014520063656C2058203D2000322920416363657A
:101462006C2059203D2000332920416363656C20A4
:101472005A203D20003429205069746368203D20A1
:1014820000352920526F6C6C203D200036292059EE
:101492006177203D20005072657373207468652067
:1014A2006E756D626572206F662074686520636870
:1014B200616E6E656C20796F752077697368207430
:1014C2006F206368616E67652C0D0A006F72207071
:1014D20072657373207820746F20657869740D0AC1
:1014E200000D0A53657420746F3A0D0A00312920E9
:1014F200312E35670D0A0032292032670D0A00337A
:10150200292034670D0A0034292036670D0A000DA0
:101512000A5072657373205B695D20746F20696E77
:101522006372656173652C205B645D20746F206457
:10153200656372656173652C205B785D20746F2032
:10154200657869740D0A0025640020202020200D92
:101552000045786974696E672E2E2E0D0A000D0AF9
:101562000A546F6F206D75636820646174612E2068
:1015720020506C65617365206C6F77657220796F9E
:1015820075722073616D706C652066726571756528
:0A1592006E63790D0A0A003F0100A4
:00000001FF
